:2000000000400020A5B7000001C9011001C9011001C9011001C9011001C9011001C9011002
:1C00200001C9011001C9011001C9011001C9011001C9011001C901103FC9011089
:20003C002DE9F04FD84C04F108012046ADF13C0D0BF0C0F804F12C050021284600F044FB49
:20005C00D64941F28832012304F16400E5600BF0A5FA4FF0804000210AF0B6FCD04E1F22F1
:20007C00062360603146102005F0A0FACD4D69782878A9B904F1100129620CF0DBFC05F1EE
:20009C00440702460020009005F154030197D549029305F11C070397AB78102005F086FAEE
:2000BC00502700200125ADF820704FF44873ADF81E0083468DF82B500DF12B02ADF8223086
:2000DC0029468DF82CB04FF47A77ADF824B040F20530ADF8267002F0E3FD40F20630022188
:2000FC000DF11E0202F0DCFD04F138024FF44270142102F0D5FD04F11C0240F2073007213A
:20011C0002F0CEFD4FF444700BAA294602F0C8FD40F21130022108AA02F0C2FD40F21230C7
:20013C0002210DF1220202F0BBFD40F21330022109AA02F0B5FD4FF4457002210DF1260284
:20015C0002F0AEFD04F14C00BA4900905A461523102005F02BFA102031460622A02305F069
:20017C0025FA102031460722A02305F01FFA102031460822A02305F019FA10203146092235
:20019C00A02305F013FA8DF82FB08DF831B02E468DF82D600DF12D008DF82E60C64D8DF858
:2001BC0030604FF48062009033462946102005F0FDF90DF12E0040F20242009033462946C1
:2001DC00102005F0F3F90DF12F000090294640F203423346102005F0E9F90CA8294640F27A
:2001FC00064233460090102005F0E0F90DF1310029464FF4836233460090102005F0D6F9D1
:20021C00BA4910204FF0FF3205F0D0F9C14910204FF0FF3205F0CAF9BF4F10201323BF4D7F
:20023C00BF4A00903946019505F0C0F9BF48007880000DF0F9FEBE4D0146A96069B14FF699
:20025C00FF700CF035F8BF49102005F11402009011230191394605F0A9F9022730468DF816
:20027C00337004238DF8320003268DF83530BB498DF8346004AF58460A6809793A600DF1D4
:20029C0032023971012107F061FB01200DF13302014607F05BFB022001210DAA07F056FBC4
:2002BC0001210DF13502304607F050FB0420052104AA07F04BFB04F1140004F12402B649BB
:2002DC006860102005F072F920780CF0B3FBB3490246102005F06AF920780CF0ABFBB04969
:2002FC000246102005F062F9BE49102005F05EF960685946BFA30A460CF011FD4FF6FD7AB8
:20031C00DFF8E482DFF8E892A068B84A59464FF0FF3300F0DDF9061CF6D0CDF818B007A82F
:20033C000DF12A0106AA0CF049F900287ED1BDF81C5001200746102D73D120789DF82A109C
:20035C0088426ED1069D28884FF6FF71814268D02B78913B3FD01F3B63D16878162818BF74
:20037C00584605D138460CF091FDC8F800503846A369C8B9297960687E2907D07F291FD14A
:20039C0029899FA304E0C04608020020297AA0A300915A4605210CF0C2FC11E045DC000030
:2003BC00A1C400006805002083B9C549C54ACDF800A010205B4605F0F9F8A369C2B22AB15F
:2003DC00297905F1080000F087F92AE043F002035F46A36125E06B780E3B05D09B1E1CD05B
:2003FC001FE0C0463BB90000A88842F20301814217D1A9680D78A5B9491C04A80A684968AD
:20041C00026004AD41602878AC4904AA00F0FD002870102005F0CAF803E00820594604F0BF
:20043C00D1FB069810B10FB10DF0C4FDF00FC0F0C580BDE011960000E568284600F050F9CB
:20045C00854208BF5F4602D087680BF04BFF381C00F0AE803888401E00F0A480401E7FD0F6
:20047C00801E45D0001F29D0083840F09E80A06980081CD3D8F80020CAB150881179083280
:20049C0000F032F90546162D03D0042D01D00CF0FDFCA3695DB933F00203A36107D18849D6
:2004BC00884ACDF800A00123102005F07FF878680BF018FF79E0C046353600007868057810
:2004DC003DB1CDF80090606804215A4654A30CF026FC40F20E300AA905F0F2FEBDF8282016
:2004FC007549CDF800905B46DEE7C0462DD000007A68BD786168107835B3012D1AD0022DCD
:20051C0010D0032D27D1002808BF49A31DD04DA315E0C04671D20000DDCB00009CF5000088
:20053C004C090020B8B94DA30FE0C046694F0020F00B0020002808BF4CA306D04FA30090AB
:20055C0003E0C046A8F5000051A308465A4602210CF0E5FB7A681046AAE7C04601F6000052
:20057C00BB78656843B19B1E1FD102200DF136010BF0E8F84AA305E058460DF136010BF0F0
:20059C00E1F84AA39DF8360004215A46009028460CF0C5FB09E0C046C1D4000051880110C1
:2005BC0031810110B87804F049F938460BF09AFEE06800F09DF800283FF43EAF7008FFF465
:2005DC00A3AE0DF039FC02200DF137010BF0BAF800287FF499AE032001210DF1370207F022
:2005FC00B5F991E6C5AB00109C1D0020010000C040E201005175616E746966656E00C046CC
:20061C004D54552053697A653A20256400C046C046432056696F6C617465643A20256400A0
:20063C0050617373636F64653A20256400C046C0426F6E64207361766520737563636573CB
:20065C007300C046426F6E642073617665206661696C65643A20256400C046C0426F6E6402
:20067C00696E6720737563636573730050616972696E672073756363657373005061697298
:20069C00696E67206661696C3A20256400C046C050616972696E67207374617274656400BA
:2006BC004368617220333A20256400C04368617220313A20256400C00DC6000095B400100C
:2006DC00D9AE0000E5D70000DFF800F0A1B60110DFF800F0F99B0110DFF800F0898401103B
:2006FC00DFF800F019BD0110DFF800F0DDFE0010DFF800F04FBF01102DE9F84FDFF82885B7
:20071C00DFF82815DFF8286588F800000822002008600D23DFF81C0540F222310270438031
:20073C008180DFF814050660B77EDFF810050770FF2FF17E417008BFFF29327F8270737FDC
:20075C00C370B57F0571F67F467115D1FF2A08BFFF2B11D1FF2D08BFFF2E0DD1DFF8E014C9
:20077C000A7802704B7843708A788270CB78C3700A79027149794171DFF8C81402780A7078
:20079C00FF2543784B7082788A70C378CB700279DFF8B4340A714079DFF8B0244871DFF890
:2007BC00B0140D704D708D70CD700D714D710021DFF8A0041180466BDFF89C1470780870E4
:2007DC003278DFF898141A70B0780870B2681079DFF88C24411E1170F078DFF88814DFF8EA
:2007FC0088240870F068106008B90CF011FF3069DFF87844206008B90CF00AFF2068DFF853
:20081C00707401688847226852F8041F38468847DFF86004DFF86014386279627069DFF8B1
:20083C005C14086008B90CF0F3FEB069DFF85014086008B90CF0ECFEF069DFF848140860BF
:20085C0008B90CF0E5FEDFF840B4DFF840649BF804000DF021FA306008B900F043B99BF817
:20087C000500DFF82C740DF017FA386008B9306835E19BF80600DFF81C440DF00DFA206077
:20089C0020B930680DF018FA386828E19BF80700DFF804940DF000FAC9F8000038B93068C9
:2008BC000DF00AFA38680DF007FA206817E1DFF898130A789BF80000DFF8E0A3921C5043CB
:2008DC0080B20DF0E9F9CAF8080058B930680DF0F3F938680DF0F0F920680DF0EDF9D9F8CD
:2008FC000000FCE0D8480078002800F00081BBF80210DFF8ACB3484380B20DF0CDF9CBF891
:20091C00040078B930680DF0D7F938680DF0D4F920680DF0D1F9D9F800000DF0CDF9DAF802
:20093C000800DCE0C84800780DF0B6F9DD49086080B930680DF0C0F938680DF0BDF9D9F86A
:20095C0000000DF0B9F9DAF808000DF0B5F9DBF80400C4E0BC480078182148430DF09CF9FA
:20097C00D14A1060B0B930680DF0A6F938680DF0A3F920680DF0A0F9D9F800000DF09CF979
:20099C00DAF808000DF098F9DBF804000DF094F9C448A3E0AC48007840010DF07DF9C349B7
:2009BC000860D0B930680DF087F938680DF084F920680DF081F9D9F800000DF07DF9DAF8E6
:2009DC0008000DF079F9DBF804000DF075F9B54800680DF071F9B44880E09B4800780001BE
:2009FC000DF05AF9B2490860F0B930680DF064F938680DF061F920680DF05EF9D9F80000E9
:200A1C000DF05AF9DAF808000DF056F9DBF804000DF052F9A34800680DF04EF9A24800683C
:200A3C000DF04AF9A14859E08748007800010DF033F9A049086010BB30680DF03DF9386840
:200A5C000DF03AF920680DF037F9D9F800000DF033F9DAF808000DF02FF9DBF804000DF0C8
:200A7C002BF9904800680DF027F98F4800680DF023F98E4800680DF01FF98D482EE0724891
:200A9C000078302148430DF007F98B4A106070BB30680DF011F938680DF00EF920680DF0B1
:200ABC000BF9D9F800000DF007F9DAF808000DF003F9DBF804000DF0FFF87A4800680DF083
:200ADC00FBF8794800680DF0F7F8784800680DF0F3F8774800680DF0EFF8764800680DF0B4
:200AFC00EBF800200CF094FD4FF4804195E0316801200871326815733068457331688D7393
:200B1C003068C57331680D7400213068457400203268D172A0223168487103213068C2804E
:200B3C0001720720326850720021306881722821306801224182C27600203168487700225E
:200B5C00306880F85E20012132681177012031684B4E81F85D0001223868027139680D7327
:200B7C003868457339688D733868C57339680D7400213868457400203A68D1720022396824
:200B9C004871386882724FF420703968C88008818A7401213B68D9742268157321684D733C
:200BBC00226895732168CD7322681574002221684D7401212368DA7200232268117121688E
:200BDC004B712168C88008818B7205202268937421683A4AC8741068804731680546086854
:200BFC008047316851F8042F0020904719481D4BC16818780A88324902430A802846314ABF
:200C1C00136898470C21304800F060F8104800F061F809F0F9FC4FF4005198F80000BDE819
:200C3C00F44F06F0F3BE00BF6E4F0020044F0020B63F0050604E0020084F00202C4E00207B
:200C5C00E81200503C4E00207B4F00200C4F0020344E00206CF600006D4F00206B4F002065
:200C7C00724F00206C4F0020F04E0020F44E00207C4B0020B5DC0000D5DC0000F84E00204D
:200C9C00FC4E0020EC1E0020B0140020104F0020144F0020184F00201C4F0020BC1E0020B2
:200CBC00684E0020004F0020804E0020844E0020884E00208C4E0020904E0020440F002092
:200CDC00544F0020480F0020F84D0020DFF800F0E5710110DFF800F01D6E01102DE9F84F6B
:200CFC00DFF8ACA20F460446F80B80F00681A34EDFF87C82B80F80F0B780B80880F0AB808B
:200D1C003809C0F02C8108200DF08AF8002840F09D8080200DF084F8002840F097806846C7
:200D3C0007F0D0FD012803D10098002800F08E8000250124E8B20CF0A7FE48B1837A3BB1B1
:200D5C00847290F9090004FA00F0C0B20BF060F96D1C032DEED345464FF0030905F1AC0049
:200D7C0085F810900DF050F98248002301680360814950F8082C98461A4640F8088C05F1F5
:200D9C0034000DF04DF93068006B8047A968401A010BA869C1F1FF3282422CBF08444FF051
:200DBC00FF30A861287F20B1E868A969B1EBC02F1ED90CF02FFA414600B12146081C14D0B7
:200DDC006F4840F60901018041464180427B64F303024273027B61F30302027341600CF081
:200DFC001BFF418811F4406FFBD02C774146A9616448016821F0020141F400710160624966
:200E1C0041F8049C41F230028A600C6050268E600C604FF4CA628A600C6041F80C4C444672
:200E3C00046002200BF092FA112006F04FFE287818B9686838300DF0FFF8687F18B16C77E5
:200E5C0005200BF083FA514868612C7409F0D0FC27F0080783E005F053FE4546743528687F
:200E7C0008B927F002077AE00DF0D4F8B3468146DBF85400016804208847D8B1207CC8B171
:200E9C00454608352868A8B10646DBF80000E568006B8047801BE060000BE060A84202D203
:200EBC0040194008E06040F6C41181422CBFB0F5FA7FE160484600F06DF80BF08DF890B179
:200EDC00A56920466FF4807100224FF00073A847464606F16C052868002808BF47F00207B8
:200EFC0001D009F085FC2046646900214FF080630A46A04727F0005731E00DF08BF8514648
:200F1C000E6846B306F1280106C90A234FF0E0450B40154008BF002B1DD106F1280191E8AD
:200F3C00300006F1280393E8060006F12803AA43A14383E8060000F02DF8B16869B1002DE9
:200F5C0008BF002C09D030692246B6F93C10B4682B46A04701E000F01DF827F4804727B199
:200F7C005046394650300DF06FF8BDE8F88FC046881500201410044055AB00008C01001068
:200F9C00781E0020000004600C410440A978000008160020DFF800F061C00110104910B514
:200FBC0006C9ADF1180D03A880E80600684603A907F048FB1421002204460AF0F1FF01202A
:200FDC000CF0FBFF1421012220460AF0E9FF4FF40C700CF0F2FF20460CF00BFA06B010BDC9
:040FFC0000F1000000
:20100000B41200001810000015AB0110FDB301106DC00110FDAE011099B5011000000000F7
:08102000000000002D0000009B
:20102800B01200003C100000B1C00110A9BF011067C0011069B80110000000000000000035
:041048003000000074
:20104C00B012000060100000BDC00110CDB30110D9BD01106DB3011000000000000000005B
:04106C00310000004F
:2010700000000000F414002004000000000000000000000020000000E8C901103000000022
:2010900028100000FC1400200400000000000000000000000C000000D8CA011018000000FD
:2010B0004C1000000415002004000000000000000000000024000000F0CA01101800000080
:2010D000000000000C1500200400000000000000000000001000000018CA01102C0000008C
:2010F000001000001C150020040000000000000000000000200000006CCA011024000000F0
:20111000FFFFFFFF241500200400000000000000000000002800000090CA011024000000AF
:20113000FFFFFFFF2C1500200400000000000000000000001400000008CB0110180000002E
:20115000FFFFFFFF3415002004000000000000000000000058000000B4C9011034000000FC
:20117000FFFFFFFF3C1500200400000000000000000000001000000020CB011018000000CA
:20119000FFFFFFFF441500200400000000000000000000001C000000B4CA011024000000F7
:2011B000FFFFFFFF4C1500200400000000000000000000003800000044CA0110280000001F
:2011D000FFFFFFFF541500200400000000000000000000005400000078C901103C00000094
:0811F0000100000034F60000CC
:0411F80001000000F2
:0411FC0000000E00E1
:0412000000000F00DB
:0412040032000000B4
:0412080001000000E1
:04120C00F0130020BB
:0412100000020000D8
:0412140000000000D6
:0412180001C90110F7
:04121C0000000000CE
:0412200000000000CA
:0412240008000000BE
:0412280000002200A0
:04122C00401200204C
:0412300000000000BA
:0412340000000000B6
:0412380008000000AA
:04123C00B0130020CB
:0412400000000000AA
:0412440000000000A6
:04124800080000009A
:04124C00000000009E
:04125000000000009A
:041254000000000096
:041258000000000092
:04125C00010000008D
:04126000D812002080
:041264000600000080
:041268000100000081
:04126C0070110020DD
:04127000000000007A
:041274000000000076
:041278000002000070
:04127C00000000006E
:02128000290043
:02128200010069
:02128400250043
:02128600300036
:02128800310033
:02128A002D0035
:02128C0001005F
:01128E00015E
:0812900003000000C0F500009E
:0812980000000000000000004E
:0412A0000000010049
:0412A4000000030043
:0412A80013C401105A
:0412AC0013DA000051
:0412B000B812000070
:0412B400B81200006C
:0412B8000000000032
:0412BC00BC1400203E
:0412C000A3DB0000AC
:0412C4002000000006
:0412C8002CF5000001
:0412CC00E4F3000047
:0412D00029C101101F
:0412D4003FDA0000FD
:0412D80023DE000011
:0412DC00A1C7011095
:0412E000A3C701108F
:0412E4000000000006
:0412E80068F60000A4
:0412EC00C8F1000045
:0412F000E0F1000029
:0412F400B0F1000055
:0212F8000200F2
:0212FA000900E9
:0212FC000100EF
:0212FE000000EE
:0113000001EB
:0413040031DB0000D9
:041308005DC20000C2
:04130C0005D1000007
:0413100071C50000A3
:0413140095C200007E
:0413180049B60000D2
:04131C0045920000F6
:04132000D9DD000013
:0413240069AC0000B0
:0413280015C70110D4
:04132C0025C70110C0
:201330002DE9F04FD24C04F118012046ADF1340D09F046FFCF4D00264FF6FF7001236670A9
:2013500032462082294604F1A4000AF02DF90223324604F1C80029460AF026F904233246BA
:2013700004F1EC0029460AF01FF94FF0040A04F1440810224046314684F802A008F07CFBB1
:2013900004F1540910224846314608F075FB04F11C073E6004F10A052E70E67126720720DE
:2013B0006072CDF80080DFF80083022210200346414604F001F9102003224146CDF8009069
:2013D000034604F0F9F81020524641460097134604F0F2F84FF0080B4FF0030905F12A00F5
:2013F000079005F17900089005F11E00099005F15A000A9024350B9517E06078A28FE18F3F
:20141000B4F84050B4F8423006280ED1ADF80A20ADF80C10ADF80E50BA48ADF810300CF0DF
:201430001FFE012002A908F021F8A069B44A31464FF0FF33FFF752F9071CF6D0059606A840
:201450000DF11A0105AA0BF0BFF8002840F0C081BDF818102078102940F0B6819DF81A1095
:20147000884240F0B181059D29884FF6FF728A4200F09F812B78A23B00F082812E3B40F03F
:20149000A381A978B046002900F03E81891E00F00D81491E012940F2D980891E00F09C8035
:2014B000491E6FD0491E5CD0083900F05981891E40F05C8194F83A30A888052BADF8080021
:2014D00047D001208DF812008E480CF0C9FD94F83A0001281ED004281CD003280DD002286E
:2014F0000BD00598C188ADF80A100189ADF80C104189ADF80E10818927E0A08FE58FADF82B
:201510000A00B4F84030ADF80C50B4F84210ADF80E301AE0A08FE9888842D8BF081CADF8EF
:201530000A002989E08F8842D8BF081CADF80C006989B4F840008842D8BF081CADF80E0024
:20155000A989B4F84200884200DC0846ADF8100001E08DF81260AA49102002AA04F02CF8F3
:2015700004E1A8480CF07CFD6B78002B40F0FE80E88860822889A0826889E08261480CF038
:2015900069FBF3E0AA88B649102004F015F807984146062208F070FA6682A682E682A87959
:2015B000207358480CF05CFD96480CF059FD4FF001084FF6FF702379208253B9A8790828CC
:2015D00012BF84F801A00520607040460CF062FBCCE084F80190C9E06B787BBB291D0798D9
:2015F0000A680260898881800623637068892082E8896082288AA082688AE082E878E07239
:2016100094F83A00012818BF02280BD19A4910201F2203F0D1FF4FF47A7180B24143394872
:201630000AF018FD688900909249CDF804A0EA7810202D1D2B4603F0BFFF9AE06878312815
:2016500040F08B80E67084F801A092E06B78002B40F08380A878E3896178032818D0E07849
:2016700025794BB9012814BF2671E6700BE0C04668050020A5DC0000054304D07F4819468E
:201690000AF0E8FC61780729DDD10620607070E0062907D0E578002D08BF84F8019068D0C3
:2016B0000220F3E70720F1E787D400006B78002B53D1EB78617893B902291DD007291BD0D7
:2016D000062902D12079012816D1032914D06B480CF0C0FA80B901200CF0DCFA0CE00BF0C3
:2016F000AFF90246A07962490090089843460190102003F061FF68706D78002D2DD135E05C
:2017100007000080300600206B7833BB5C485749009002221020034603F04EFF59484A4629
:20173000524900901020034603F046FFED1C099829680160A98801238180207863700BF065
:201750007FF9024601230A9D6079494900901020019503F031FFC0B258B184F801B008E07A
:20177000AA8841491020052303F026FFB8F1010F2AD1256A45B32D6835B36078A84723E0AB
:201790006879132820D12889012808D1607B022805D11C480CF064FC0AF048FF14E036492A
:2017B0001020052203F008FF81B216480AF052FC0AE06888C00B07D3334852462B49009059
:2017D0001346102003F0F8FE059808B10CF0F8FB2579E078790830D355EA00032DD0204623
:2017F00000788DB9E179257A8DF808100B9A8DF8095013680DF10A052B609288AA8005E0C6
:2018100005160110540600208DF80890617A8DF81010A17A8DF811100BF012F9114902460C
:2018300002AB102003F0C8FE38B1256A84F801B01DB12D680DB15846A847B80803D31349BD
:20185000304607F013FEF808FFF4EFAD607B401E3FF4D3AD401E7FF4E8AD0AF0E7FEE4E571
:2018700081B1000059440110C117011049670000094501100D6C00005DD800000C060020A0
:20189000AC050020BC05002084050020A20500202DE9F04F0F46CD4C0168E1624168806816
:2018B000ADF11C0DE060C548A1608047C448E16A0160A168DFF810A34160E168DFF8049399
:2018D0008160CE49002FA346C1606FD03D68E8788DF80C0028798DF80D0003A80CF0C6FE54
:2018F000A86808B1C6490160E86808B1C5490160C54C287820706878BE686070A878B268D6
:20191000A0703178A2607368E1702E696360EA6926627968E2620868E06068696062A86922
:201930007B68A062286A9E68206395F8240084F834001EB900200BF071FE00E0666178684E
:20195000C06818B900200BF069FE00E0A0617868006918B900200BF061FE00E0E061786886
:20197000406818B900200BF059FE00E0206128692062F86881680E6806B9D24ED0494FF002
:2019900001084E60C66881F8018036B900200BF045FE4D462E68F86801E04D462E60006818
:2019B0005446FB68A0615868E06107E000200BF035FE4D462E684FF001085446361DC74975
:2019D0003668621C04F114035020B04710B1286880688047DBF808008047C24E00278146C8
:2019F0003B46BF487770694620610422337038460AF034FE0098B0F5801F0CD020B90BF039
:201A100027F904F087FD08E00AF090F80CF074F80420708001E00BF01BF93846BA4EA060C2
:201A30002B68B760986980477060AF4880F800803946418014200CF035F9FF211422A0626F
:201A50000CF016FBE01CFF2102220CF011FB14200CF028F9A54F38603868002114220CF051
:201A700007FB0020FEF74EFE40460AF0B1F9A0480188FF2906D1022101807822001D0021DD
:201A90000CF0F6FA03200CF0EDFD04200CF0E6FD05200CF0DFFD06200CF0D8FD072009F02A
:201AB0007FF8944E0820307006F124000CF0CAFD09F062FA06F1360A05200A2152460BF0A8
:201AD000DAFC38B10020C0F10901401C0AF8011B0A28F8DB3078102105F09EFF2B68864910
:201AF00009200DF10E025E68087001AB10200021B047A06ADBF80C10E2690A260A309DF82A
:201B10000E30761E00F8013BF9D1921E4846E261884704F120002B68626A059040461E697F
:201B3000DFF8D88104F120034146B04710B1286880688047B8460BF0EBF95FEA000903D0CD
:201B500007F056FA4FF0FF39002643E00298216910F8062CA0F10C07032A03D1002939D039
:201B7000884737E0A16A9DF810C00A223046491E11F8013F9C4506D0521E00F10100F7D1CC
:201B90004FF0FF0A01E05FFA80FA2868BAF1FF0F00F108001CD038790AF004FBB979012905
:201BB00004D0022904BF0299887001E002990870029950460BF0B4FB0CE0C0464149001065
:201BD000F844002074150020381300203C0F0020006880472868C36904A902AA0DF10F00C9
:201BF00098470028B2D0D8F800007700C35B6BB9761CF6B20A2EF8DB2BE0C04684E6000003
:201C100085CB00002DD80000081200200A2E20DADBF808008047D8F80010002231F807A07F
:201C3000CA53DBF80C108847354850F8262026705146304690470646FF202070DBF808005E
:201C50008047D8F800107A5A16437E52DBF80C1088470BF05DF90746B9451AD0DBF80800B1
:201C700007B9284FE169B94238BF0F1C804781462868016A206A8847626A28681F49059B70
:201C9000521C6262C6683846B047DBF80C1048468847A768296860691431AFB9D8F800002D
:201CB0000A270026835B33B10969606988472968D8F8000014317F1E06F10206F2D107E005
:201CD000D414002027B50000096988472968143109684FF0FF3088472DE7C04699D00000C8
:201CF000A5D80000BC11002064050020FC1E0020D80F00207C0A00200E1F0020EDC10000FF
:201D10006CF300008EC2F528B01E00202DE9F84FD74CA178FF2904BF00200BF07FFCA078C7
:201D30000BF0C2FE044604F1680504F190062968086810B10021E1830CE0A87B002804BF60
:201D5000A97E002906D13078002801BF207F0128608CE0832189E08B4118491C618120468A
:201D70000CF06CFC01281EBFC2480178012904D121890020491CE08361814FF6FF77A87E12
:201D900001280DD1AA8B618920890CF053FC38B1218960894A1C93B298421BD0A88B0FE00B
:201DB0003078012816D17288618920890CF042FC80B1218960894A1C93B298420AD0708879
:201DD00092B2904206D03818608180B20CF02EFC3F18E78304F5967999F8040020B12089A6
:201DF0000021401CE183608104F12E07A87E01283ED12289A88B521C92B2904238D160813D
:201E100004F1860120460CF00DFCA88C608400212177E183E08961894118A181A88B2189EB
:201E30000CF004FC8046B988288C6A8C01FB0808E88C8A4204BF3989884202BFAB8CF988D1
:201E50008B4207D000090090AB8CA179520800200CF0E4FBA87F3870698CB980A88CF880E6
:201E70002046E98C39810CF0D5FB0220A87601E0B7F80480B4F81EC022687F4ED2F80CE006
:201E90000CF1010000FB08F340F6C41000FB03F18E44C2F80CE03668DFF8E0E13678BEF833
:201EB0000080774AB609032E11D1D67BF60748BF4FF000080BD408F101081FFA88F6012EBC
:201ED00012BF668AB9F8066006F2DC5600E0668A5E434FF4C87AB6FBFAF6761C6661AEF85A
:201EF0000080A3614FF0180894F806A084F820C008FB0AFADFF88CC1DCF800E023680EF1F8
:201F1000080656F80AB0C3F810B094F806A008FB0AFACDF800A0D3F80CB0D4F814A0ABEBE5
:201F30000A0ADDF800B046F80BA094F806A008FB0AFA56F80A609E600EF10C06A37908FBF0
:201F500003F30EF10C0EF65C06F0F00646F002060EF803604FF0000ADCF800E0A6790EF162
:201F7000020308FB06F623F806A0474BA6791B68760103F1140AD4F814B05AF806A00AEB52
:201F90004B0A03F1140B4BF806A0AD7E022D0BD1A5796D0103F1140697F800B056F805A0DE
:201FB00000FB0BAA46F805A0BD88D27BA779D60737D508FB07F70EF10802D659A6F5A86AFD
:201FD0000EF1080646F807A0A77908FB07F7D2592768511A3961BA6003F11402A179490197
:201FF000575807F5F667575003F11401A27952018958C9F800106843244A156BA7792968AF
:2020100003F11C067F01401AA0F51670F0512049A07903EB40100B78012B14D10121C172BB
:2020300014E003F114027F01D1592A464243A1F5E661A2F516729142DDD3082120460CF0E9
:20205000E5FA012011E0916A4A78C272A179DCF8000008FB01F281182268516007200D4959
:20207000087020460CF0CEFA0020BDE8F28F00BF684E0020784F0020084F0020041F002032
:202090005C4D0020804E0020844E00206CF60000734F00206F4F0020BB482DE9F84F0025E0
:2020B000BA4CB849056094F8E200002800F06581012800F02F81B64E02283CD0032840F0DA
:2020D0005C8151F8250CD4F8B8100029A0F5C060C4F8D400B8BF49420028B8BF40428142B1
:2020F00026DA4FF08057D7F8A4014568B4F8BC0030214FF47F42082300903046A847D7F8ED
:20211000A4014568B4F8C00004214FF4F802122300903046A847D7F8A401B4F8D070456858
:2021300020214FF440620A2330460097A847012584F8D8501CE151F8258C0BF058FE2F46B9
:2021500000B901273946934F38680028FCD0B146012609F10409D9F82CA03E6009B10BF084
:202170004CFECAF30720C4F8BC000BF040FEAA4600B9B2463B68002BFCD0D9F800B0BAF109
:20219000000F3E6001D00BF038FECBF38440C4F8C0000BF02CFEAA4600B9B2463B68002BEE
:2021B000FCD0D9F81C90BAF1000F3E6001D00BF024FEC9F38120C4F8D000B8F5C061C4F80D
:2021D000B81000F09C8094F8D80068B9C4F8D410D4F8C000C4F8C800D4F8BC70C4F8C470FE
:2021F000D4F8D030C4F8CC30D4F8D400D4F8BC30002854BF02226FF0010204F1C8010F68FD
:2022100000EB40008018421000EB927207EBA2000860D4F8C810C4F8C43000291CDD1E29F1
:202230003CDDD4F8CC0030B93429B4BF15391E21C4F8C81025E02A29BABFD4F8C8000B385B
:202250001E20C4F8C800D4F8C4003F28B4BF401C3F20C4F8C4001FE0D4F8CC00032812D063
:2022700011F10B0FC6BFD4F8C8000B30301CC4F8C800D4F8C4000028C4BF401E051CC4F898
:20229000C450032508E011F1150FC6BFD4F8C8001530301CC4F8C800C4F8CC504FF08057C8
:2022B000D7F8A401B4F8C43030214FF47F424568374800930823A847D7F8A40104214FF4F0
:2022D00000321123456832480096A847B4F8C860D7F8A40104214FF4F802122345682C48DC
:2022F0000096A847D7F8A40120214FF440620A23B4F8CC60456826480096A84701E084F8AD
:20231000D85040F2FF50404502D8801C40452FD2082030E051F8251C1F4F4BF2F520484376
:20233000060A3868C0F3814001280CD11B4800680068804709F098FC0BF065FD3111C0106D
:20235000484306EBE03694F8E50030B91448006820F07F403618760801E084F8E550114837
:20237000310C0660012741600F4D8760287808B90B2000E0052084F8E40002F08DFFBDE88A
:20239000F88FC0462D400C402C500C40280E002000A00C4000800C40B43F0050EC010010D1
:2023B000102009403C600C40FDF400002DE9F04F09AFADF13C0D08900A92388809911E46D5
:2023D000ADF81800101C08BF002000F06C81017800274FF0010B401C4FF0FF39B846DA4664
:2023F0000A9058E1252940F04D810178401C0A902D2918BFADF8068004D10178ADF806B03E
:20241000401C0A9030291CBF4246434604D10178401C5A465B460A902A29CDF800804D46C1
:2024300017D1049330680A9BCDF80890C01C20F00300001D306050F8044C1978002C0094EE
:2024500003F101000A9018D5ADF806A06442009413E044460AE0600000EBC4004018A0F10C
:2024700030040A9801780094401C0A90302901DB3A29F0DBCDF8089004932E2929D1017852
:20249000401C2A290A9011D13168CDF80880C91C21F00301091D316051F8045C002D48BF8D
:2024B000454601782B46401C0A9011E0454643460AE0680000EBC5004018A0F130050A98DA
:2024D00001782B46401C0A90302901DB3A29F0DB02930AB1224604926C2904D04C2918BFA6
:2024F000ADF8048004D10178ADF804A0401C0A900BA8CDF80C800FAB07906429059379D053
:20251000692977D0BDF818C0752965D0782961D06F295DD0702946D0632936D073291AD014
:202530000A98401E0A900998012812D961490C68B5F1FF3F03D0A84288BF6D1C00D8099D2F
:20255000029508A80AA932466B46A0473F18039865E0454617E03068C01C20F00300001D04
:20257000306050F8040CBCF1010F014608B94FA0014607910BF0CAFA0390B5F1FF3F4FD07B
:20259000A8424DD9039528464AE03068C01C20F00300001D306010F8040C8DF82C005D464B
:2025B000039558463CE0082035680490E81C20F00300001D306050F8041C082210230FA820
:2025D00007F042FD401E079040210170079823E0082302E0102300E00A233068C01C20F07B
:2025F0000300001D306050F8041CAA42BCBF2A1C04920DE03068C01C20F00300001D30604F
:2026100050F8041CAA42BCBF2A1C04926FF009030FA807F019FD07900599081A0390009C4A
:20263000241ABDF8065000945DB906E008A8202109AA0AF0A4FB7F1C009C641E0094F5D55D
:202650000398401EB0F1FF3F03900FD1BDF8060001281CD10098401E009018D408A82021EB
:2026700009AA0AF08CFB00987F1CF4E70798017809AA08A80AF083FB0798401C07900398E8
:202690007F1CDEE708A809AA0AF079FB7F1C0A980178401C0A9000297FF4A4AE089808B106
:2026B0004146017038460FB0BDE8F08F286E756C6C2900C040F600002DE9F84F0C46E00719
:2026D00088B00BD50BF0D6FA28B100218160AB48006800B1804784F001004CE1A0070FD52C
:2026F00000210023069105910491039302910191009101223C200BF081FF84F002003AE1ED
:202710001D2560079E4E9F4F40F18A80002107918B469D488178FF2904BF00200AF07EFF01
:20273000386890F8A0000BF0BFF980463868C07A98F82691022818BF032808F5907A06D11D
:2027500006F10D000BF056FF08B906F1070B514648460BF04BFF88B33868807A002818BF0D
:20277000012804D1314650460BF03CFF04E05246494630460BF032FFFF2834D005FB00F937
:2027900006EB090506225146E81D0BF09BF816F80900396840F00209E81D07900622887E1B
:2027B00000F0010088F8260105F1010A386800F1140108F590700BF085F814E0514648463C
:2027D0000BF008FF78B15246494630460BF006FFFF2808D006F10D01454348190BF00AFF30
:2027F00008B149F0020908F12C004B46017806914289120905920122B8F822100491C088A7
:202810000799029140080390CDF804B0CDF800A0002098F806100BF0F1FE84F00400AAE00A
:2028300020060FD500210023069105910491039302910191009101223B200BF0DFFE84F062
:20285000800098E0E0043BD5F11D06F10D000BF0BDFE38684179012923D1017A012918BFC0
:2028700004291ED1C17A022918BF032919D1817E00F1140230460BF0B1FEFF2811D0454323
:20289000354405F10D000BF0B5FE50B9E91D05F10D000BF09BFE38680622E91D14300BF04B
:2028B00011F83A4842683A4800784FF4805108F0D7FF10B18E2006F0E3FF84F480505AE02E
:2028D000A00505D50BF093FA324901200860FEE7600504D505F0FBFF84F480604BE06004E4
:2028F00005D5812006F0CCFF84F4804043E0A10440D5294D286810B100200AF08FFE274E94
:202910004FF0FF3028600BF05DFE3168244D51F8202F684690472349234B486A8A6A009024
:2029300001920293C86A0268086A0392ADF810000A6B1178002904BF5068002805D190686F
:20295000002804BFD068002806D02970506868609168A960D068E86029463568134A2E68AC
:2029700013486B46B0471349086002F0EDFE84F4005000E0002009B0BDE8F08F204F00206F
:20299000AC450020104F0020684E0020784E00206E4F0020FC002043044F0020F04E0020CE
:2029B000684500200812002075DC00002C4D0020A01D0020EC4E00202DE9F84FB34D6968B1
:2029D00084B0019121B905B0BDE8F04F0BF0F6BD0978DFF8BC82AF4EDFF8BC92DFF8BCA213
:2029F00001291CBF0229042946F2A81741F64C5B05D0402918BF802900F096803CE10BF0B9
:202A100039FA0028FAD00198007803F0CBFB0090446814B900200AF001FE9AF801000028DA
:202A30005CD001F041FA0BF03FF802900168009801914F6807F0E2FB022825D000990A7812
:202A5000012ADBD196490A68137A19F80310317018B90BF0AFFD5844A0602069C17E01F01F
:202A7000EF01C1762069C17E41F08001C1762069C17E01F0F00141F00201C1762269B968AD
:202A900088484118D1614BE001980178802911D10820854930700A78012A03D09AF801005A
:202AB000022801DB38690CE0D8F828003A690178D1720DE07C49072030700A783869012A55
:202AD00002D10121C17203E0D8F828104A78C2720298817901988AF80210C8E000980028B4
:202AF0008CD00199009A0078914205D101281CBF00200AF093FD15E0012840F0BD8068482C
:202B100001680A7A19F8020030700BF053FD3918A0680BF04BFD18B90BF04CFD5844A0606D
:202B30000120A8700098A2E09AF8010000287AD001F0BAF90AF0B8FF0446206802904768C5
:202B50009AF802000AF0B0FF03900BF099F910F0070F3DD0A87803F025FB019041680198DF
:202B70000091029907F04AFB022831D001990A78012A2AD14A490A68137A19F80310317019
:202B900028B90BF017FD83440098C0F808B000980069C17E01F0EF01C17600980069C17ECE
:202BB00041F08001C17600980069C17E01F0F00141F00201C176009AB9683A484118106980
:202BD000C16101210198A97051E000200AF026FD0398A04225D0029833490278802A12D1F2
:202BF000082030700978012903D09AF80100022803DB38690121C17210E0D8F828003A6963
:202C10000178D1720AE0072030700978386901290EBF0122D8F828104A78C272A0798AF862
:202C30000200029823E00BF02BF910F0070F29D0A87803F0B7FA04462078D4F80480012898
:202C500020D117490868027A19F8021031700BF0B1FC3918D8F808000BF0A8FC20B90BF01F
:202C7000A9FC5844C8F808000120A870204605B0BDE8F04F04F08EBF05B0BDE8F04F002009
:202C90000AF0CCBC05B0BDE8F08F00BFBC1E00206CF600006F4F0020289A0110684E002027
:202CB000104F0020F0D8FFFF734F00202DE9FC41A0F2013714468846022F40F232819B4E99
:202CD0009C493F1F0F2F04D9143F4CD0BF1E1CD011E0DFE817F0CF00C9000D01FA00C1002E
:202CF000B9002601AF00A700100010009D008F007F00740066002A2880F21381B8F1020FD7
:202D100040F00F818849238807E1B8F1010F40F00881F078012800F004813246207811796D
:202D3000107189B9002800F0FC805078012800F0B580042800F0B280062800F0AF8005284E
:202D500000F0AC80BDE8FC812078002840F0E9805078032800F0AF80072800F0AC80052842
:202D700040F0DF80A7E0B8F1010F40F0DA802078012840F0D68006F1EC000AF06BFF002834
:202D900040F0CF803446002004F13A0106F06EFB002840F0C68004F1C8000BF061F9BDE826
:202DB000FC81B8F1020F40F0BC8020880A28C0F2B880B0F5486F00F3B4808E1C17E0B8F1CF
:202DD000020F40F0AE802088B0F5FA7F80F2A9800E460CE0B8F1020F40F0A38020880628F0
:202DF000C0F29F80B0F5486F00F39B803E363080BDE8FC81B8F1020F40F09380208806286F
:202E1000C0F28F80B0F5486F00F38B803C36EEE7B8F1010F40F085802078062880F2818019
:202E3000454E0EE0B8F1010F7BD12078042878DA0A3606E0B8F1010F73D12078082870DAB1
:202E500009363070BDE8FC81B8F1010F69D12078042866DA0836F4E7B8F1010F61D12078CE
:202E700004285EDCF61DECE7B8F1020F59D120880E36BCE7B8F1010F53D13079012850D0B4
:202E900032462078D178D07069B9002849D05078012803D0042818BF052842D101200AF004
:202EB000F9FEBDE8FC81207800283AD15078022818BF052835D1107809F0C2FD1C49024635
:202ED000102002F079FBBDE8FC8106F1830500211F22284606F0D0FD21464246284605F0C6
:202EF00093FD44463078B47109F0AAFD002311E006F1640500211F22284606F0BDFD2146E0
:202F10004246284605F080FD44463078747109F097FD01230094094901950246102002F08B
:202F30004BFBBDE8FC81C046A1C400006805002099450110A8050020A2050020094501103F
:202F50002DE9F04F8246DAF80070DAF804600C465FEA0208ADF11C0D14BF00214FF0FF31FD
:202F7000DFF8449248460AF002FE002818BF0B2040F01681002590488D4905708B48FC60A4
:202F900052460BF053F8317B27200BF051F8B8F1010F07D06570022009F0F0FB062009F082
:202FB000EDFB01E0012060702078012840F2AB80801E012868D9801E012833D9801E012887
:202FD00000F2DF800BF02CF883464FF0805000F5EE77D0F8DC01A378466A00932178284635
:202FF000062908BF0120019001200290A068228AE1686368B04781465846FDF7D1FFB9F1D4
:20301000000F40F0C080B8F1000F02D00AF02AFC02E0504609F056FA002800F0A4803868DA
:20303000806A2AE00AF0FCFF83464FF0805000F5EE77D0F8DC01012306680093A168A27878
:2030500060682478AC46042C08BF9C466346B04781465846FDF7A4FFB9F1000F40F0938099
:20307000B8F1000F02D00AF0FDFB02E0504609F029FA002877D03868406880474D49C1F863
:20309000B0510D6081467EE00AF0CAFF83464FF0805000F5EE76D0F8DC01E38A8769009304
:2030B000E0680190208B0290A0780390207D04900121059122782846022A08BF081CE178DE
:2030D0006268A368B84781465846FDF769FFB9F1000F58D1B8F1000F02D00AF0C3FB02E045
:2030F000504609F0EFF900283DD03068006A80475FEA000947D13068C569A168E28A23691A
:20311000E078A847BEE70AF08BFF83464FF0805000F5EE76D0F8DC01E38AC7680093E068E2
:203130000190208B0290A0780390207D2946049001200590257805B9014608466268A368EB
:20315000E178B84781465846FDF72AFFB9F1000F19D1B8F1000F02D00AF084FB02E0504667
:2031700009F0B0F908B914201AE03068406980475FEA000907D1306802692169E0789047C0
:2031900080E74FF0FF39B8F1010F05D0022009F0E3F8062009F0E0F803480AF053FF4846A1
:2031B00007B0BDE8F08FC046C810002000110020B9CD0000504502400C1F002010B50B7805
:2031D00084074CBF43F0020303F0FD0304064CBF43F0800303F07F0304074CBF43F008038A
:2031F00003F0F70384064CBF43F0200303F0DF0310F0AA0F0B7003D0107840F00C0003E064
:2032100018B9107800F0F300107010BD2DE9F8430D4600272878022814461E4667D16968B9
:2032300008784978DDF8208000EB012080B25FEA08021CBFB0F5285F0B205BD14FF428511D
:20325000401A08D0401E21D0401E2FD0401E25D0401E31D04BE0DDF82490E8680AF00AFFC7
:2032700080B2A0EB08024A45BCBFA0EB08001FFA80F909EB0800162806DAA6F800904A4670
:20329000E86800EB08010DE00D2732E0E8680088022131802070000A60702AE006203080B1
:2032B0000622E96820460AF00DFB22E001203080E9680A7822701CE0E868B0B1082131805E
:2032D0000288227003881B0A63704188A1704288120AE270818821718288120A6271C18850
:2032F000A171C088000AE07103E0308001E0378001273846BDE8F2832DE9F0470F468146B5
:2033100038780024022890461D466DD17868089E01784078DFF8D8A001EB002189B24FF497
:203330002852891A06D0491E29D0491E4ED0491E39D059E0F8680AF09DFE80B2B04204D30C
:20335000A919162903DB0D244FE007244DE0FB682A46414698190AF0B5FAAD19F868ADB28D
:20337000C5F11602002140190AF082FEDAF8000000281CBF0268002A37D0002123E08EBB9E
:20339000022DE0D198F8000098F80110FA6800EB01201080DAF8000000281CBF0268002AA5
:2033B00023D001210FE0EEB9062DCCD1F868062241460AF087FADAF8000000281CBF0268B9
:2033D000002A12D00321484690470EE056B9012DB9D198F80000002813BF0128F968087007
:2033F000802402E00B2400E001242046BDE8F087F41E0020FEB57748774A0078774C784B1E
:2034100078490D2840D8DFE800F0E307070707DBDB5EDB9A9AB8B8BF146041F204457249DB
:203430004C88AC421FBF4E8BAE424F8EAF4203D11D806E4810607AE0002C6D4D1C804FF48F
:20345000A05639D0641E3CD0641E35D040F2FE37E41B1AD0241F012C1DD94FF47F77E41B5A
:203470001BD04FF44067E41B0FD0A41E012C0CD9241F0AD0641E012C0DD940F2F937E41BA2
:20349000012C19D9241F08D09AE0022814BF1E80584D15604BE0584DFBE7584803681C7A60
:2034B000012C05D141F20240488048834886F0E74E804E834E86ECE700200AF0AFF88320A2
:2034D00082E08F2080E04E488178FF2954D0146018204C4C41432068851C40F204466C5A5D
:2034F0001C80A41B012C484B72D94FF47F76A41B0FD04FF44066A41B032C84BF641F012CB6
:203510000BD9A41E012C63D940F2FD36A41B08D103E0801C41F201444452136003F026FE78
:2035300005E000200AF07AF885200BF03BF803B0BDE8F04035480078012104F06DBA40F24B
:2035500004424888188090421CBF41F2084290423ED041F60402904211D12D4C2D482E4B4B
:2035700000680025CDE9004502222C4C256855F8086FB0472A490880F7BD48881880002098
:203590000AF04CF885201FE04888188002280DD940F20442801A1BD040F6FC72801A05D0B1
:2035B000083815D04FF47F72801AE8D1887B801CC2B2B52AA8BF6620887300204880F7BDD9
:2035D00000200AF02BF88420BDE8FE400AF0EABFF7BD00BF6F4F0020204F0020F5DF0000C0
:2035F000504F0020CC4C0020204A002059550110615A0110B1540110755B0110104F002039
:20361000684E0020804E0020313901106E4F002002000080EC4E002039C40000F04E002047
:20363000424F00207CB5894D144602460026A2F58062182A1AD8DFE812F0FE00F800F1009D
:20365000E900E200DC00D500D0001900C500BE00B700AE00A3001900190080006F006800E1
:2036700054004C00420039002C0024002A2880F28580022940F08280218808F009FF0646B4
:20369000E1E0012940F0DE80002C00F0DB801135A6E0102940F0D680002C00F0D3802846C2
:2036B0005030102221460AF00DF9CCE0012940F0C980002C00F0C68029468D1D90E0262958
:2036D00040F0C080002C00F0BD8005F160002622E8E7012940F0B680002C00F0B3806D1D3B
:2036F0007EE0602900D13CB9012940F0AB80002C00F0A8800D3573E005F18600214660224A
:203710000AF0E0F8012068739DE0012940F09A8020780AF043FF96E0012940F0938020788B
:20373000022800F38F800C3528702078022814BF301C01200AF02EFF85E0072940F0828084
:20375000611C6846062209F093FF20786946324604F0E4FD04460A2C10DA0AF017FF38B97C
:20377000204602F045FE09F0E7FB07F005FC6AE02A46012002F12C05285564E0022662E0A1
:2037900001295FD1A87B21780028A9735BD12078012858D1E9E7012954D12478072C51DB8F
:2037B000102C4FDC0B3537E001294BD124780A2C48DA093530E0012944D12478022C41DA8F
:2037D000083529E000293DD10AF0E0FE10B90AF00DF9C8E701240F351EE0012932D10A3539
:2037F000247819E001292DD12478022C2ADAED1D12E0102926D12B4603F1400051E70129FB
:2038100020D12478022C1DDA2D1D05E0012919D12478042C16DCED1C2C7014E0012911D140
:203830002478022C0EDAAD1CF6E702290AD120881435288007E0012904D12478022CD8BF3A
:203850006D1CE9DD182630467CBDC0467C0A00202DE9FE4F05467B48002400680094C00916
:2038700005D37948007810B9202008F045FE012D40F0E280DFF80092D9F8DC00012840F0B4
:20389000D8800220C9F8DC0009F074FF012008F033FE5FEA000805D00120C9F8DC0009F06E
:2038B00075FFCBE00AF0D2FBA34602906748684DC0F800B0A86A016801208847012804D162
:2038D000584606F0D1FC012000906248624FC0F800B0386811200AF0A3FA00B10124102095
:2038F0000AF09EFA08B144F002040F200AF098FA08B144F004040B200AF092FA20B1286871
:20391000564E016B308888470A200AF089FA20B12868534E016B308888475248012606603D
:203930002868816944F0200088474F4806600AF071FA00F001010191400814D2286A81684B
:203950004A4888478246BAF1040FF7D0BAF1010F04D1286A42684548032190474449086858
:2039700020F003000860584600F088F82B683868986B8047019801280CD0BAF1010F04D183
:20399000286A42683948314690473949086840F0030008602F480660286841692046884733
:2039B0000B200AF03DFA20B128682C4BC16A188888470A200AF034FA20B12868284BC16AD8
:2039D00018888847274806600322C9F8DC20264BC3F800B02868416B204688470128F9D171
:2039F0003868042008F088FD0446184806603868144800688009FBD30098012802D13046A1
:203A100006F032FC0AF0F9F9082008F075FD07460298C9F8DC600AF0B5FD1648008806F088
:203A3000FBF909F0B3FE57EA040018BF4FF0FF3804E06FF0040801E06FF001084046BDE883
:203A5000FE8FC04614100940100F00200C400940B8010010000222432C20094092F100003A
:203A70008EF1000028200860800104430040034024220840F8F40000280E00202DE9F84F8F
:203A9000DFF804B20746ABF13500DFF8F0810068800880F0E28075480068006880477E4946
:203AB0000831D1F8009000254FEA29715FEA995201F101010AD2C0F13E0210F10A0F4FEA24
:203AD000E202D8BF08229142B8BF111C684BD3F87C21C2F30462162AA8BF203A1B68C3F34A
:203AF0000443162BA8BF203B9A465218162A05DA12F10A0FB8BF6FF0090200E015225D4B47
:203B10005D4E02F01F0141F4F8511980316811F0030F18BF0125C90828BF45F002050FB164
:203B300045F00405434693F90710411A052904DA9979A94208BF99886FD0DFF844E10F284D
:203B5000A0F10F0829DB08EB0011A1F1F0084FEA28210091072984BF07210091062988BF66
:203B700006215EF821600424774604EB81043C594FEA950CA41BEE0804F0FF0124BFC4F32C
:203B9000072631446F08AE0824BFC4F3074631446E0828BF01EB146104E000214FEA950C4D
:203BB0006F080091009C5EF824E05FEA5C060EF0FF0424BFCEF3072634447E0824BFCEF3D8
:203BD000074634446E0828BF04EB1E64009E89B2A8EB06267143803104EB1124AAEB020189
:203BF0000029D8BF0121342209F0FF074A4391B24FF6FF727943B1FBF4F18A4238BF111CBB
:203C1000802889B2998005DA10F1800FB8BF6FF07F0000E07F20D8719D711A4800681F29EC
:203C300018604FF0000008D340F2FF128A4206D24908401C8A42FBD301E01F219980134F18
:203C50000F39090940EAC10047EA0001CBF8FB1F0026CBF8FF6FBDE8F88F0D490D4F434642
:203C700008200F609B1D1870BDE8F88FEC0100103C1100506E62084024220840E41E0020CF
:203C90009C130050082009403500094000E7A48030100940FDFDA400AC3F00502DE9F04F64
:203CB000044672488E46016894461F46BEF1000FADF13C0D4DD0BCF1000F4AD09EF8002026
:203CD00001209040014244D0BCF80000B0F5C15F32D1DCF81400DCF81860654BDCF81C50EC
:203CF000DFF890A10B904FF003080DF128090C9618680D95C0F3036B59F8046FCEB100214F
:203D1000351F05200B4655F8042FB2F1FF3F10D0924506D0401E01F1040103F10103F2D1CB
:203D300007E0052B05DA705820F4702040EA0B407050B8F10108DFD1C4F804E0C4F808C056
:203D50000AF06EF94C4D8046287820B14046FDF727F9002087E002F0FBF84849086840F0EB
:203D70000200086007A809F06DFF002605F1D00007AA4349099607F0D1FF424905F58270AF
:203D900007AA07F0CBFF07A809F024FFFF20192107AB3D4A089005F1340007F027FF3B4AE0
:203DB00005F150001A2107AB07F020FF3849324605F18800134607F08BF93649324605F172
:203DD000AC00134607F084F9334A05F120000421334609F011F80E2003F096FF05F1740007
:203DF00009F030FE05F16C0009F02CFE2E740523EB60072085F898012E77AE616E772849AB
:203E1000AE60264A69612B781670581C28704046FDF7C6F8B1461FB9684609F01DFE6F4697
:203E300038682060388A6082012060747B6813B940F6C4130646E3601A48A06126746061B0
:203E5000F86800B1A061B86800B160614946582204F1200005F010FE04F13800494608F0D9
:203E70005DFE6C6020460FB0BDE8F08FD4210840541300500200F84488150020002009406A
:203E9000CDD700000174000055AB000089A4000011D2000069D50000ADB30000061F002006
:203EB000A9780000438E00002DE9FE4FDFF8F48198F8011011B9002009F0B0FB0AF07AFBB3
:203ED00007464FF0000907F6C4170026764D774C11E0304609F0E8FD417951B12A6881792C
:203EF00002F8091009F101015FFA81F939460AF045FB761CF6B220788642EADB98F8011017
:203F1000894505D0002009F089FB82200AF04AFB98F80100012840F0A780002601E0761CC6
:203F3000F6B22078864280F29980304609F0BCFD074678790028F2D02968B8790A78904278
:203F50001CBF002009F06AFBB87985E02868C05D09F0AAFD00684268DAF80810906881425E
:203F700004BF34467F1C00F08D808FE02968087801234FF4C07210E0D8F8047007F5AD7CEA
:203F9000CF5C02FB07FE02FB00FA3CF80E403CF80AC0644538BF38465B1CF7B2BB42EBDB6C
:203FB00006464FF6FF700AF0E5FA8246F0B209F07BFD4FEA5A010068446840F6C410414307
:203FD00000270190009117E0F0B209F06DFD01680A78802A03D1DBF81030009A5A6109783A
:203FF000402908D1324A8079116801EB4012009800F5A060D0617F1C4F4551DA2868C05D7E
:20401000F1B28142F7D001464FF4C073D8F80420594302EB010C02F5AD72BCF80E30515A69
:204030005A088A4202D25B1A9945E4DA09F03CFD0068D0F804B0A268DBF80810019B4FEA7D
:204050005A00A1F6C41103FB00200AF0AFFA0028BAD02868C05DC0B2BDE8FE8F002009F0AD
:20407000DDFA82200AF09EFA98F8011028680AF07DFA2868007809F017FD00240068D0F81A
:2040900004A00127661C4F45FFF660AFE4B2002C1CBFF0B200287FF469AF2868067880E7C3
:2040B0003046D8E7684E0020004F00207B4F0020844E00202DE9FE4F0E468246307AC106AA
:2040D00093461F464FF000090CD558460AF04AFA030000F0E8800A223146504698475FEAD1
:2040F00000094DD130780C9D0D9CDDF8388002281AD170680178407801EB002189B24FF459
:204110002052891A012910D9891E3AD0491E14D0FD397AD0491E00F08180491E6DD0491E88
:2041300073D0491E00F09580ABE0002C2AD1F068017829800278416887E0002C22D10120CA
:204150002880F1680A783A7000217089401C80B20AF004FA298860B10278921C5118298086
:20417000418979704289120ABA7041680278F81C6CE0091D298004220021781C09F078FFCE
:2041900093E0002C66D1F0680688042129803E70320A7A700DF1020130460AF0DFF9040064
:2041B00021D0D4F80C80BDF802204FF6FF766B4631460AF0CFF940B9237862683C48022126
:2041D0000AF0C4F908B9ADF8006098F8000002280BD1D8F804100222381D09F073FB288848
:2041F000801C288001E0ADF80060BDF80000B870BDF80010090AF97057E0002C2AD1F068B1
:204210000168504609F0D6FC02E01CBBF0680088022129803870000A787046E0F06809F04E
:2042300029FF80B2A042B8BF4FF007093DDB844208BF002205D008EB04028242B4BF424618
:20425000021B2A8092B2F0680119384609F03AFB2BE014B14FF00B0927E0F06807212980D2
:2042700002783A7043787B704188B9704288120AFA7001793971C2887A71C088000AB8714E
:2042900013E058460AF05EF95FEA00090BD00F980290CDF8048000942B463A4631465046EB
:2042B000C847814601E04FF00E094846BDE8FE8FCCF200002DE9F0410446764DA178A869E5
:2042D000ADF1180D891F00F0DE80C91E00F0C980491E5FD0491E48D0C91E3CD0481E40F057
:2042F000D580287A697AB8B96878002831D0A0880AF024F9071C00F0C980A07A40080FD37B
:20431000787968B1E168890A0AD2B91D01AA04F005F80A2804D10321A0880AF00BF9B5E073
:20433000287B022802D1A07A0009F4D3A088797904F1080201F078F8A869002800F0A6801A
:204350004368002B00F0A28000210A46A08898479CE00521E0E7002800F098804368002B7E
:2043700000F0948062780221F0E709F08BFC002800F08C80A86950B1076847B1206900901F
:204390006189227B637BE01C3C46A0477EE060890121C2E767784FF00008002F52D1A1799F
:2043B00049084FD3EF69002F4CD101A841460E2209F05EFEA0880AF0C1F8071C66D0606924
:2043D00040B97879B91D06228DF80A0001A809F079FA19E06669307C062206F111018DF817
:2043F0000A0001A809F06EFA07F10C00B91D062209F068FAB81D062206F1110109F062FAE1
:20441000307C40F002007871A1799DF81120C1F3800010438DF81100080905D39DF8110039
:2044300040F008008DF8110001A8214600F024F928B92878022103F0EFFA404627E0A86963
:204450004FF0150810B3436803B3A088627801219847B8F1000F19D0A869436803214246C0
:2044700074E7E078211D002203F058FF0A280DDA410001EB800004F10C0225300421C0B21A
:2044900002F05AF902E0A08806F072FE012006B0BDE8F0817C0A00202DE9F04F754F1E4647
:2044B000ADF1340D01914FEA960902923D680090710809F1020221F0010105EB8200091DB8
:2044D0000390901805EB80000490501805EB80038018059305EB8000079026F0030000F171
:2044F000080802EB080005EB800340180893801805EB80000990C6F39C008000083002EBA6
:204510004000411805EB800305EB810B0A938918831805EB8104404405EB8303C6F3990168
:2045300005EB80008900069038680B930A010021803205F0A1FA4849DFF820A10968284628
:20455000AAF1880290470746B94518BF6FF001007ED128465546394605F168029047019826
:20457000314608F03DFF002818BF012070D10298314608F035FF002818BF022068D10398ED
:204590000199A84704980299A847009881680598A847334B0399059A20469946C847012819
:2045B00002D1BD0066590EB1032051E020460021424605F061FA0499059A2046C847012850
:2045D00001D166590EB1042042E0274B254D079803991E462A46B047089804992A46B047A7
:2045F000079909980A46B0470A980999079AB0471E4D0B9807992A46B04720460021282261
:2046100005F03AFA1A4B0A990B9A20469946C847203520462A460146C847089958460A4650
:20463000B04706980021424605F026FAFDB25846002D0CBF0122FAB20021635C455CAB4295
:2046500018BF052004D1491C521EC9B2F5D100200DB0BDE8F08FC0468C4F0020B9DB0010BD
:20467000C9DE00106C130020F9E0001084F20000C9E60010884F00202DE9F04F714CDFF8D6
:20469000C0A1E56988468146ADF1140D002D4AD1B9F1000F00F09280B8F1000F00F08E804E
:2046B00008F0ECFA06460A2E23DAD8F814702674002F39D0700010216A4600EB8600233050
:2046D000C0B208F0D8FE90B950460778FF211022684609F01EF850B93FB999F806004946F6
:2046F00000F0010009F022FF01E00120A074E56919E004F1E60B0A2700265846FF2106221F
:2047100009F007F868B97F1E0BF10E0B06F10106F3D1607C002804BF0A2020744ED094F8CD
:204730003660267400E0267C0A2E47DA002D35D170000E214A4600EB86002030C0B201F0D8
:20475000FBFF207C06F076FE6846FF21102209F08FFC207C10216A467030C0B201F0ECFF5A
:20477000217C0E220801A0EB410000194946E63009F0A8F8D8F814206AB15046007840B90A
:20479000107C02F11101002300F0010009F0CAFE01E00120A074C4F81C804CE0AA68002ACD
:2047B0003ED12A69002A2FD16A690ABBEA683AB9A07B08B108F042F808F04EFE01203BE0BA
:2047D0007000102100EB86002430C0B201F0B4FFE769217CFA68480000EB810010322530B3
:2047F0000421C0B201F0A8FFE1690020C86022E07000102100EB86002330C0B201F09CFF83
:20481000E1690020486116E070001C2100EB86002230C0B201F090FFE169002008610AE060
:2048300070001C2100EB86002130C0B201F084FFE16900208860002005B0BDE8F08FC046C2
:204850005A4F00207C0A002070B56F4C0146643C6068491EADF1280D5DD0491E57D0891EAE
:2048700042D0491E3BD0491E04D0491E34D0491E30D02CE009F0E6FA6049102000F09CFE4F
:204890005F49C5B201AB10206A1E00F095FE48B900956068022100223CA308F046FA0DF14A
:2048B00006000CE006AD40F21530294601F00EFD60680221002239A308F037FA2846646815
:2048D00006F0CEFC032103460022204659E00221002219E034A300E035A3002250E0142087
:2048F00008F0DAFA38A307E004F1640009F0B8FB142008F0D1FA37A360680221002208F03F
:2049100014FA60680321052209F065FA3BE0022134A30446D8E74FF4417008A901F0D6FC88
:204930009DF821608DF8056000258DF808509DF822308DF807509DF824108DF806309DF889
:2049500020008DF80A109DF825208DF804009DF823608DF80B2001AB2A498DF809601A68CE
:204970000A6058684860666808A806F079FC034601212A46304608F0D8F960681CA32A465B
:20499000022108F0D2F90AB070BDC0464E756D20436F6E6E733A20256400C046436F6E6E6C
:2049B000656374656400C0464572726F7200C046436F6E6E656374656420416476657274B3
:2049D0006973696E6700C04654696D6564204F757400C046446973636F6E6E656374656483
:2049F00000C046C04164766572746973696E6700496E697469616C697A656400F17F01106A
:204A1000097F0110B70800206C02002066480178002900D170472DE9F843491E032984B090
:204A300004D9891F012940F2BC80B4E05F4CDFF880912068DFF87C8103685F4E03F10805AD
:204A5000062205F1080102A808F03CFF0622A91C684608F037FF2878C1091D2700F00F02CA
:204A7000032AC0F3801537D16079C0F3800081421ED12169062202A808F032FC00280AD067
:204A90006946284609F0B2FD002804D03146684609F0A8FDFF2879D04743D8F80000807ABE
:204AB000F519002818BF02280AD0012818BF03286CD1F25D691C484609F030FD102865D078
:204AD0006B46EA1D2946484609F024FD06226946E81D08F0F7FE59E000F00F00052860D198
:204AF0006079C0F38000814250D12169062202A808F0F6FB002849D06946284609F076FDA7
:204B1000002843D03146684609F06CFDFF283DD04743D8F80000807AF519002818BF012805
:204B30000AD0022818BF032830D1F25D691C484609F0F4FC102829D040F2024007F00CF972
:204B50006B46EA1D2946484609F0E4FC06226946E81D08F0B7FED8F80010F05D88760622DB
:204B7000D8F80000691C143008F0ACFE1348144A41F2044141804183418612480180124937
:204B9000124811600121007802F046FF21680A680020107105E0002008F040FD862009F0F4
:204BB00001FD05B0BDE8F0836F4F0020F44B0020CC470020104F0020AC450020204A002090
:204BD000204F0020504F0020595501106E4F00207CB56D4D044668680E4628B94FF0004022
:204BF000002105F0F7FE686000213CA30A4608F09CF820463DA3801E08D0801E61D0401E0D
:204C10004CD0401E37D0401E22D00EE06868012E05D000210A4608F088F837A357E00021D6
:204C30000A4608F082F839A351E0686800210A4608F07BF86868022100223AA308F075F892
:204C500001208DF803009DF803000028FBD17CBD686800210A4608F068F868680221002228
:204C700036A308F062F801208DF802009DF802000028FBD17CBD686800210A4608F055F807
:204C900068680221002232A308F04FF801208DF801009DF801000028FBD17CBD6868002180
:204CB0000A4608F042F86868022100222DA308F03CF801208DF800009DF800000028FBD122
:204CD0007CBD686800210A4608F02FF829A368680221002208F029F87CBDC0463E3E3E53E5
:204CF0005441434B20415353455254002A2A2A4552524F522A2A2A003E3E20494E544552EB
:204D10004E414C204552524F522100C03E3E20494E5445524E414C204657204552524F52BD
:204D30002100C0463E3E2044454641554C54205350494E4C4F434B2100C046C03E3E20573E
:204D5000524F4E47204150492043414C4C2100C03E3E204943414C4C2054494D454F5554AE
:204D70002100C0463E3E204943414C4C2041424F525421003E3E204F5554204F46204D4547
:204D90004D4F52592100C046080200202DE9F0430546880FADF1140DC0F0BF80604C201DA9
:204DB000006840688768C668406800B18047002F08BF002E08D008F059FE07B1B84706B1DD
:204DD000B047584808F004F8574808F02BFF574A40F60A0CA2F800C000205080117B60F361
:204DF000030111735060517B4FF0010969F303015173AB686E7C58801988A1F60201C9B1A8
:204E100041F21E07C91B15D041F6E677C91B012920D8597E012E60F38201597606D0198BA2
:204E300021F47C7141F43471198313E0198B60F30911F9E7597C012E60F38201597405D08A
:204E5000198A21F47C7141F4347102E0198A60F309111982D5F8088068746146464600E0F2
:204E70003E46776817B13B889942F9D17260737B60F303037373E76E3FB1FB681B88CF1F57
:204E90009F421AD0891F994217D02F8CB7B1686205F12001488095F82C3060F3030385F842
:204EB0002C3095F82D3069F3030385F82D305160517B60F30301517300E0A0601C4801681B
:204ED0008768C568009110226946406B019720F0784040F0805003901648029503F094FD1D
:204EF00008F0C4FD14486061607F68B91348006801684846884701280CD0707B69F30300F4
:204F100070730F4F676105E006F090FD0028FBD009F094F8404608F085FE05B0BDE8F083CA
:204F3000881500200100070601010E04781E00204C13005018000021F90C0000E0010010EE
:204F5000D1AD00002DE9F04FADF1240D079000F0FFFF5F48007808F03DF85E4D00240128D6
:204F700006D90C3804D0401E0ED0401E09D006E008F0E8FB022804BF01210C1C06D0696818
:204F900005E005211F2401E0032107246960524A1068C0F38150012806D152F80C0C012798
:204FB000020E07FA02F0044308F034FE05F1440AFF2253464018401E471C28607F1E03F836
:204FD000012BFBD1079A1268002602F0FF03FE2B1DD0DDF81CC0964633460EF0FF07FF2F46
:204FF0000ED0B84205D3B94203D80122BA40144201D0022069E016430EF0FF020AF80230E0
:205010005CF804EF5B1C0EF0FF07FE2FE7D1092002F07AFE07980121A86005F1280007F068
:205030007DFD00274FF0010BB9462846804600F198050BFA07F0044216D1064204BF07F088
:20505000FF0141F4C04104D01AF80700079951F82010224801F0E2FCF8B24FF0FF3108F0BA
:20507000AFF8C5F8009001E004202860D8F800007F1C2D1D8742DCD904A808F0ABFD184CBC
:20509000184A2078102104AB059008F10C0006F0ADFD684608F0D6FDCDF80C906A4660689A
:2050B0001149029008F1640006F038FE0F4951F80D0C20F4F85040F4005041F80D0C0C4F24
:2050D000C1F8FFBF4846C7F800B009B0BDE8F08F0D1F0020140D0020B43F0050007FC767F2
:2050F000D4F500004DD50000FDB900000D300940080009402DE9F04F0746ADF1140D039331
:20511000002F02920E9801910F9C049000F0B680081C00F0B380101C00F0B080181C00F068
:20513000AD800498002800F0A980002C00F0AB80206A002800F0A280564D666A281D00682A
:20515000002E00F09B80A16A09F0E0F940B2002808BF6FF0020700F08D8084F82C002078A3
:20517000618800EB80000918143188B2216A88474749086030B92846406809F0C3F94FF0E6
:20519000FF3777E08B46628823786088DBF8001025789E1800EB010A701800F1040805EB93
:2051B000450002EB4306851876186D18C01805F10C098018401800F11005204606F0ACF9DA
:2051D0002078C01C8010CAF800002078C01C8010C8F8000020780836C01C801030602078CB
:2051F000C01C8010C9F800002078C01C80102860227839460AF1040003F006FC22780199A5
:2052100008F1040003F000FC22780299301D03F0FBFB2378204641463246FFF73DF9071CD8
:2052300012D100955046414632464B4609F066F947B22278039809F1040103F0E5FB2278CE
:205250000498291D03F0E0FB21786288DBF8000001EB81015218002104F00EFC616ADBF8A3
:20527000000088470B48406809F04CF9F8B2992808BF002784F82C70384606E01CB16FF015
:20529000010084F82C006FF0010005B0BDE8F08F884F0020641300202DE9F843614C5A4DE9
:2052B0005A4EDFF870815E4F94F8E4100846401E0B2864D8DFE800F07B2C430623430623F0
:2052D00043067664042907D001220A2945F8212C14BF0220032004E0202045F8210C0120F0
:2052F000024684F8E200002045F8390C0827C5F8FF7FC5F8F37F45F8392CBDE8F8830529CD
:2053100014BF09200620002784F8E400376075E094F8E170383D0120002FC5F81B0004BFAB
:205330000620002102D00021F160032084F8E400032045F8010C3160306880085ED294F875
:20535000E4103348012703290ED00068456800216022052300914046A84794F8E400062818
:2053700014BF0A200720CFE700684568002160220523022000904046A8470420C4E7FEE788
:205390002548264F0026012506600E203D6002F0A3FB022006F0E0FF84F8E45084F8E360A8
:2053B000BDE8F883002038600C25786024E04FF08059D9F8A0010168202088472C3D0F205E
:2053D00045F8010C41F61D56C5F80360D9F8A401466800214FF4C072072302254046009583
:2053F000B047D9F8A401C66800214FF4C07207234046B0470120386084F8E45004F17800EF
:2054100008F006FEBDE8F88339400C4038600C40A401001000A00C402C500C4004800C407E
:2054300034600C40280E00202DE9F04F88468246ADF1AC0D299209F081F85C4CE67894F825
:205450000BB0A57A94F80C90071C00F0AB8068460021A42208F00CFE2801279A55498DF858
:20547000046005F0030300F4807605F00405ADF800A0B9F1020F01EA020143EA01024C4B20
:205490008DF8A0B046EA020100F4C06603EA010246EA020045EA00054FF00000279508BFC2
:2054B00001208DF8370009F025F8412809DB207B00280CBF002008209DF8991008438DF8B8
:2054D0009900607B002804BF00208DF8380017D001208DF8380004F1860120220DF13900C6
:2054F00008F0F0F90DF1590004F1A601202208F0E9F90DF1790004F1C601202208F0E2F964
:20551000A07940B18DF8260004F1500110220DF1270008F0D7F966793EB104F16000B91D68
:205530000622054607F0DCFE68B92079002804BF00208DF8050015D08DF8050004F1400123
:205550000DF106000BE08DF805600DF1060005F11601102208F0B6F90DF11600A91D10226C
:2055700008F0B0F9E07930B1B8F1000F03D0279941F002012791002100B10121A7789DF861
:205590009900002F41EA00018DF899100CBF002004209DF89910084329998DF899006846B3
:2055B00008F0A4FF2BB0BDE8F08FC0467C0A0020FBF9FFFFFCFEFFFF0FB42DE9F04106AFEC
:2055D0008046ADF1280D08F09DFC3E1D26F00306361D30F0010001D102F04DFECDF81A6055
:2055F0001420ADF816000025CDF80E50FF248DF818407B68CDF81E3008F074FF064608F0BF
:2056100081FC30F0010015D008F05CF84D492A468446062031F80C7F4FB14B681B689E42EB
:2056300004D0401E02F10102F4D100E0D4B2604608F08FF9404606F075FE0146FF2905D0AE
:20565000204603220DF11A0304F0B2FF08F04AFF07F064F8A8460746CDF8008008F052FC95
:2056700030F0010063D0002F61D041F2883001A907F024F8009C002853D108F02FFF019916
:20569000012645187868019B41464FF00052FBF725F800282BD00DF122000DF1230102AAC2
:2056B00005F00CF9B0B99DF8220003A907F01EF838B9029A08F008FC00281CBF029C464651
:2056D00015D10299684607F0D1F978684FF0005108F000FF0198B0F1FF3FD3D00028D1D07F
:2056F00008F0FCFE281A02D00199814217D207F0FBFE07F10805009F07F0E4FF01463FB1A9
:205710003A4652F80C0C40B9286842F80C0C2F60084608F01EF9304603E00246F1E70190C6
:20573000B0E720B92CB1204608F04AFC01E002F0A2FDDDF81A0000680AB0BDE8F04104B05B
:205750007047C046840F002070B5424C424B2568186855F8183F00224FF0FF3198473F48E1
:205770003F4A416B3F4C88683F4D41791170002608F0ACFE3D4808F0A5FE08F09FFE3C48A1
:20579000026800215171A02301680722CB804A72032103681972002201684A77002302685D
:2057B000D3760021036883F85C10012201680A770123026882F85D300021006880F85E100C
:2057D0000EE06068F1B24FF4C072514342185379012B04D1F0B208F067F908F06BFE761C43
:2057F0002978F0B28842ECD308F060FE2148224A0178224C117006F0CDFA08F053FE2049CB
:20581000204B0020087000221F491A7001201F4B08701A701E491F4B08701A701B201E495F
:205830001E4B0A701A804FF4A4721D491D4B08801A80FB201C491D4A088040F648001C4940
:205850001080FB230B80208008F028FE19490020087070BDF04E0020EC4E00206CF6000000
:20587000714F0020684E00207B4F0020CC470020104F00206D4F00207A4F00204E4F002044
:20589000734F0020744F0020754F0020764F0020774F0020784F0020794F0020524F0020F4
:2058B000444F0020464F0020484F00204A4F00204C4F00206F4F002053480178042900D84E
:2058D00070472DE9F84F891F2FD0491E012900F29080DFF838A19AF80200FF2825D008F012
:2058F000E3F883460BF16C07786808F0D3FD804698F80400032818D1D8F80800047814F017
:20591000030404D17868BDE8F24F08F0BFBD4578032C00F102090BF20F160BD035B13878E6
:2059300020B93D217170012030706AE038490A78012A66D09BF8941059B32D1FEDB24B4611
:205950002A462146584608F09DFD40B93D207070012131702F48BDE8F24F08F08FBD2E4820
:205970000168884706469BF80610DAF804204FF4C07041435018002280F839210BF59A7097
:2059900001688079490804F0DFFD24490A68304690470020032CC8F8080016D02048416939
:2059B0000878820707D5C0074CBF03200020401919F8000000E08120387223469AF802004B
:2059D0002A46494608F056FD0AE00F480178082903D04946584604F07DFC484605F050FD45
:2059F000786808F053FD41465846BDE8F44F08F03DBD002007F012FEBDE8F24F862008F0C5
:205A1000D1BDBDE8F18F00BF6F4F0020684E0020794F0020AC450020440F0020480F00206D
:205A30006CF600002DE9FF4104466668A7680D4608F0F6FA3178012903D1FBF7B1FA0020D8
:205A50008EE001213170FBF7ABFA287870706878B07068687060A868B060E868F0602869FD
:205A70003061287D3075687D7075A87DB075A869B061287F3077687F7077A87F4FF000087B
:205A900043461D4686F82851B07786F82951C6F82080336375627563B562B56386F82C5028
:205AB00086F82D50786802F02FF9204602F0FAFF204603F043F860B9386807F071FB786800
:205AD00002F00AF808F0ACFA3570FBF769FA2C4645E0684608F07EF80094387B224A019033
:205AF000B9686B4606F17C0006F080F8684608F0A9F800941D4938696A46029006F1980030
:205B100006F00CF9B07830B906F1CC00294607F005F817483061707830B906F1E800294634
:205B300006F0FCFF1348F060684608F0F7F901958DF800501049029406F582700A226B46FF
:205B500005F0C6FAB969FA6906F13C0008F006F80A4A06F168000421234607F04DF92046EE
:205B70000090BDE8FF81C046E15C00002BA90000A9DF0000A1DF000091B6000045DD0000D8
:205B9000F0B5514C20780D46E90BADF11C0DC90372D1A80860D2E069216A6A080ED2E80806
:205BB00028BF85F0040580F08C80680904D303F09DFF85F0100584E0002083E0868861B984
:205BD00004F11600414A00904FF6FF710223012008F048FC0146216221B304A80090002757
:205BF000019702230293FF220392E28A30460DF11203FEF75FFA58B99DF813009DF81220CA
:205C1000216A12EB002204D04989304605F06CFE216AE28A08463B464FF6FF7108F09AFC46
:205C300001462162A069002918BF85F001051AD168B143685BB1E0698088012100229847D7
:205C5000A069E7694368B88803210022984707F0D7FC85F0010534E000200146FEF70CFD0D
:205C700018B185F00205012102E0022185F00205207801F0D1FE24E003F094FA071C1ED03E
:205C900038780126B03811D0401E02D01F3808D011E0387978B97888F9883A8905F024FEC7
:205CB0000AE03846FEF706FB064604E0397907F10800FAF717FD16B1384607F021FB85F4BE
:205CD0000045A8B207B0F0BD7C0A0020D4F200002DE9F84F8046D8F808603068D8F804502E
:205CF000076CDFF830B14764AB6B6A6C286C17F4F06F1946A0EB020934D1F8091ED2780968
:205D100074D3B1B196F821205846801D845C601E814294BF1C1C641E4046214606F062FE4F
:205D3000A86B001BA86361D105F19800012108F091F94046494607F013F957E00029F8D076
:205D5000404606F04FFE95F82D10A86311B900284CD101E00020A86305F19800012108F0D2
:205D700079F943E0F80A20D24FF0000A544602E0AB6B5B1EAB6393B14046012106F032FE16
:205D90003068446814F00F04C0F804A0F0D0286B401E2863686B401E6863A86BE8B905F15A
:205DB0009800012108F056F913E0306844680022202904F00F044260CCBF4FF0200A9A46B3
:205DD0004046514606F00EFECAF120008145C8BF81464946404607F0C3F8EC77404605F000
:205DF00075FB726A12B1404621469047B8090FD3A96A69B10F46404606F00BFEA86238B91B
:205E100096F820205946895C4046C91905F078FABDE8F88F4CF200002DE9FC4705466E686D
:205E3000D5F8088037780FB1B76B1FB14FF0FF30BDE8FC8731630024F477171C74631BD0EE
:205E500006F13C0908F0ECF882466946484605F0ECFE00281ED45046FBF7A2F89DF8000065
:205E7000316B0870306B736B7F1E00F10100306303F101007063E5D17078726B316B01285B
:205E9000A1EB0201316303D1F36828469847726B144659E0B763D8F80010086B40F40070D2
:205EB0000863D8F80010886B40F4FA6088635046FBF776F806F5947007F062FA707806F5F0
:205ED000947768BB08F0ACF896F82D1069B1716B59B1B16B49B1B463FBF762F806F59470A5
:205EF00007F03EFA706BBDE8FC87FBF759F8716806F1E805284607F03AFE0028F2D0B463C2
:205F10002846214607F033FE0028EBD0384607F027FA1027716B306BF777401A3063E1E72A
:205F300008F07EF896F82D1061B1716B51B1B16B41B1B463FBF734F806F19800012108F03C
:205F500089F801E0FBF72CF82046BDE8FC8770472DE9FF47484C94F8E700002876D13E4E16
:205F700001273C48F57C84F8E770736884F8E6500068C4F81031C0F3801084F8E8006846DA
:205F900007F0CCFF002504F10C0001956B468DF80050324902952A4605F09AF8304904F176
:205FB00030006B462A4605F093F82E4904F154006B4681462A4605F08BF8B168384688477A
:205FD000DFF8B0802848327D08F104030078284E1868C0F3815A22B1BAF1030F04D184F8AE
:205FF000E170BAF1030F17D0BAF1020F14D0BAF1010F0ED0022006F0C1FB1C48006801685A
:2060100004208847012804D030683221B1FBF0F10DE005F037FF12E0022006F0AFFBBAF191
:20603000030F0CBF4FF47A7142F210713068B1FBF0F1484607F0EAFF484607F0E9FF40460A
:206050000068C00802D2284606F098FB00200090BDE8FF8714100940E8F40000C7A00000AA
:20607000BD850000799F00000D1F0020E0010010F81E0020B03F0050280E00202DE9F84F51
:206090005FEA00091C46924600917DD0081C7BD0BAF1000F78D0002C7BD0206A002873D0A9
:2060B0003F4D616A281D006800296DD0A16A08F02DFA40B2002808BF6FF002055FD084F84A
:2060D0002C002078618800EB400009180C3188B2216A88473149AB46086030B9DBF8040053
:2060F00008F010FA4FF0FF3549E08846668865882178D8F800008F192D183F1806EB410664
:206110003618204605F008FA2078C01C8010286020783F1DC01C8010386020780836C01C8E
:206130008010306022784946281D02F06DFC28463A463346014608F091F945B2227800980D
:206150003B1D194602F060FC22785046311D02F05BFC21786288D8F8000001EB4101521878
:20617000002103F089FC616AD8F800008847DBF8040008F0C7F9E8B2992808BF002584F8BA
:206190002C502846BDE8F88F1CB16FF0010084F82C006FF00100BDE8F88FC046884F00207B
:2061B000641300202DE9F041FF2807461ED107F067FE10F0070F16D0042005F083FF08B1E2
:2061D00004200AE0012005F07DFF08B1012004E0022005F077FF20B10220BDE8F04105F006
:2061F0008DBF07F01BFA0020BDE8F08105F086FF8046012FD8F80450334E04D0022F29D0EE
:20621000042F3DD0EFE7022005F05CFF80B1022005F074FF074601207C6805F053FF28B1B9
:20623000A0683118A86808F0C1F988B13846DBE7042005F047FF28B1042005F05FFF0746C6
:20625000012026E0012005F03DFF08B94FF000084046C9E7042005F035FF28B1042005F038
:206270004DFF0746022014E0012005F02BFF28B1012005F043FF074602200AE00220E2E7AA
:20629000012005F01FFF88B1012005F037FF074604207C6805F016FF0028C7D0A0683118C6
:2062B000A86808F083F90028C0D1D1E7022005F009FF30B1022005F021FF074604207C684D
:2062D000E8E70420BFE700BF589EFFFF2DE9F04F0C4645498A7AADF12C0D84460592087B6E
:2062F0000990CD7800954A7AC88ACB89CE7A91F804A091F801800492B1F842E008900A7AB5
:20631000888A03928D780790CA79488A0292CF6906908A79088A01924A79E146A9F540794A
:20633000B9F11D0F10D8DFE809F05B5553514F4D4B494643413F3C3A380F3432302D2B2572
:2063500022201E0F1B1A1918BCF12A0F49DA274962461020FFF730F91FE0099EB246D04634
:20637000CDF814801BE00898079007980690DDF818E005E03431086820608888A08030E006
:20639000704608E0B1F8400007E0C88F03E0888F01E091F83A00034612E0208021E0059811
:2063B00004900498039001E02E31E4E7039802900298009006E0019A83310DE064310BE006
:2063D0001846EAE7009D0BE02831D4E7276008E0543100E044311022204602F015FB00E01F
:2063F00025700BB0BDE8F08F680500205DD800002DE9F043454E0546307CADF14C0DA842A3
:2064100009D13078012106F091F83078022106F08DF807F0F5F86C0004EB85040E210FAA53
:2064300004F1200004F120075FFA80F9F8B207F022F8002865D10FA8FF21062207F069F9D8
:2064500000285ED168461C2207F012FE07A8FF21102207F00DFE04F1230010210BAAC0B26F
:20647000804607F008F890B929480778FF2110220BA807F04EF950B93FB99DF842000FA943
:2064900000F0010008F052F801E00120B0740FA8FF210E2207F0ECFD48460E210FAA00F046
:2064B0004BF906461C216A4604F12100C0B200F043F91C216A46064304F12200C0B200F0EC
:2064D0003BF910216A460643404600F035F910216A46064304F12400C0B200F02DF904F1EA
:2064F000250704216A460643F8B200F025F97035102107AA40EA0604E8B200F01DF92043CC
:2065100000E0002013B0BDE8F083C0467C0A00205A4F00202DE9FE4305F028FEDFF804814D
:20653000814608F1020000880027001F84B2042C5ADBFF254FF6FF7620466946042206F011
:206550008DF8BDF800309E4237D0002B35D0D80BC2032FD19D422DD0381FDDB280B20428E2
:2065700015DBB0F5805F12DA00F18852126801A90A60BDF804108D4207D0BDF80610401ABE
:20659000001F80B20428ECDA01E0012300E00023BDF802001BBB211A001D8BB282B207F152
:2065B0008851184606F05AF8BDF80200C119091D8FB214E0BDF8020011E0BDF802000346B8
:2065D0006FF30E0363B9011D8C4208DA002007F025F8484607F006F80020BDE8FE83241A13
:2065F000241FA4B2042CA7DA05F0A0FA3FB10C484FF088513A4607F096FC07F07DFA484651
:2066100006F0F0FF4246507800281CBF0020011C03D1C7F58054391DA0B25180BDE8FE83F2
:2066300004E00100BC1100202DE9FE430D884A88AA4201D32A0001D1012075E00023002441
:20665000ADF8043002944FF6FF7881460F4627E00294287802283AD1BDF8006001218DF8B5
:206670000610B6082878022860D1688904F8010B02226989090A04F8011B2046696807F0D3
:2066900021F9A41CBDF80400401CADF80400B1B2BDF80400884249D26D89454546D06D1C32
:2066B00000200090002379880022A8B207F0DAFE05003BD0BDF8040008BB6B4642460521C0
:2066D000484607F0C7FE0400C2D111202CE002208DF806001221BDF8000090FBF1F62A78E3
:2066F000102A23D1688904F8010B6989090A04F8011B2046696807F0E5F81034C2E79DF8B9
:2067100006000128EBD1ADE701A9484607F09EFE48B101AB05221621484607F093FE10B145
:20673000029804F0ADFE0020BDE8FE83BDF804000028E9D10A20F7E72DE9FE4F3B4D4FF0FD
:20675000000A93460290884685F801A004F0E8FB071C1BD0B8F1000F08BF544614D0ABF14A
:20677000010946465446384601A9012205F076FF9DF8041019F8010F884205D17F1C761E8B
:2067900004F10104BFB2EED1A0454CD06F8808F103004FF6FC7440F6FC7104EA0006B819AE
